{
  "_format": "hh-sol-artifact-1",
  "contractName": "L2Contract",
  "sourceName": "contracts/L2Contract.sol",
  "abi": [
    {
      "inputs": [
        {
          "internalType": "address",
          "name": "_l2Bridge",
          "type": "address"
        }
      ],
      "stateMutability": "nonpayable",
      "type": "constructor"
    },
    {
      "inputs": [
        {
          "internalType": "address",
          "name": "_to",
          "type": "address"
        },
        {
          "internalType": "bytes",
          "name": "_calldata",
          "type": "bytes"
        }
      ],
      "name": "sendMessageToL1",
      "outputs": [],
      "stateMutability": "payable",
      "type": "function"
    }
  ],
  "bytecode": "0x608060405234801561001057600080fd5b5060405161036938038061036983398101604081905261002f91610054565b600080546001600160a01b0319166001600160a01b0392909216919091179055610084565b60006020828403121561006657600080fd5b81516001600160a01b038116811461007d57600080fd5b9392505050565b6102d6806100936000396000f3fe60806040526004361061001e5760003560e01c8063abd9872914610023575b600080fd5b610036610031366004610105565b610038565b005b600080546040517f240ff37800000000000000000000000000000000000000000000000000000000815273ffffffffffffffffffffffffffffffffffffffff9091169190600190839063240ff37890349061009d9086908a9087908b90600401610200565b6000604051808303818588803b1580156100b657600080fd5b505af11580156100ca573d6000803e3d6000fd5b50505050505050505050565b7f4e487b7100000000000000000000000000000000000000000000000000000000600052604160045260246000fd5b6000806040838503121561011857600080fd5b823573ffffffffffffffffffffffffffffffffffffffff8116811461013c57600080fd5b9150602083013567ffffffffffffffff8082111561015957600080fd5b818501915085601f83011261016d57600080fd5b81358181111561017f5761017f6100d6565b604051601f82017fffffffffffffffffffffffffffffffffffffffffffffffffffffffffffffffe0908116603f011681019083821181831017156101c5576101c56100d6565b816040528281528860208487010111156101de57600080fd5b8260208601602083013760006020848301015280955050505050509250929050565b63ffffffff851681526000602073ffffffffffffffffffffffffffffffffffffffff861681840152841515604084015260806060840152835180608085015260005b8181101561025e5785810183015185820160a001528201610242565b50600060a0828601015260a07fffffffffffffffffffffffffffffffffffffffffffffffffffffffffffffffe0601f830116850101925050509594505050505056fea2646970667358221220080ecc1463f9e7751740d1dccfe43f430232f49f00c3652fb17c58d7e4feb6a164736f6c63430008110033",
  "linkReferences": {},
  "deployedLinkReferences": {}
}